:040000007DEF38F068
:1070D6009EA670EF38F072EF38F06BEF38F09E96A0
:1070E60012009EAA79EF38F07BEF38F074EF38F093
:1070F600AE50120000EE4AF00E0EEE6AE806FDE112
:10710600000130EF3AF0C584C5B48CEF38F08EEF4D
:1071160038F087EF38F0C7501200C59AC588C5B851
:1071260097EF38F099EF38F092EF38F01200C58AF1
:10713600C588C5B8A1EF38F0A3EF38F09CEF38F05A
:107146001200016E9EA8AAEF38F0ACEF38F0A5EF5A
:1071560038F001C0ADFF120093809382500EC76EC7
:10716600280EC66E000EC56E130EC86E9D869E96C0
:107176001200016E01C0C9FF6BEC38F0C5ACC6EF5A
:1071860038F0C8EF38F0CBEF38F0010ECCEF38F01E
:10719600020E1200026EC582C5B2D4EF38F0D6EFE9
:1071A60038F0CFEF38F09E96C7B6DCEF38F0DEEF5A
:1071B60038F0E0EF38F0E3EF38F00250BCEC38F08E
:1071C6001200026EC580C5B0EBEF38F0EDEF38F077
:1071D600E6EF38F09E96C7B6F3EF38F0F5EF38F0E5
:1071E600F7EF38F0FAEF38F00250BCEC38F0120046
:1071F600016EC586C7A002EF39F004EF39F0FDEF46
:1072060038F0C9CF02F00150D8A40CEF39F00EEFD8
:1072160039F012EF39F090EC38F014EF39F09AECBF
:1072260038F06BEC38F002501200066ED00EE4EC2B
:1072360038F00650BCEC38F0D10ECDEC38F0000E2C
:10724600FBEC38F0056E0550566E576A000EFBECE7
:1072560038F0056E0550546E556A010EFBEC38F099
:10726600056E0550526E536A52C003F053C004F0C7
:107276001200949C948E42C001F043C002F044C0B8
:1072860003F045C004F0010EF9EC3AF001C013F02A
:1072960002C014F003C015F004C016F0000E0F6E05
:1072A600240E106EF40E116E470E126ED3EC3BF0E8
:1072B6000FC028F010C029F011C02AF012C02BF020
:1072C600000E2C6E000E2D6E800E2E6EBF0E2F6ED3
:1072D600A0EC3DF0000E2C6E000E2D6E800E2E6E74
:1072E600BF0E2F6E42C001F043C002F044C003F04F
:1072F60045C004F0010EF9EC3AF001C013F002C0EB
:1073060014F003C015F004C016F0000E0F6E240E24
:10731600106EF40E116E470E126ED3EC3BF00FC0DA
:1073260028F010C029F011C02AF012C02BF0A0ECF2
:107336003DF028C038F029C039F02AC03AF02BC0F9
:107346003BF0ADEC39F03850AF6E200EAC6E900EBF
:10735600AB6E12003A343B34416E4150D8A4B6EFBE
:1073660039F0B8EF39F0C2EF39F0000E386E000E82
:10737600396E000E3A6E000E3B6E2FEF3AF038C0B3
:107386003CF039C03DF03AC03EF03BC03FF0200E25
:10739600D2EF39F0D8903F323E323D323C32E82EC1
:1073A600CDEF39F03C50406E3A8EFF0E3816FF0E88
:1073B6003916FF0E3A16000E3B16960E415E41BE7A
:1073C600E9EF39F0E7EF39F0FFEF39F04150800A85
:1073D600970FD8B0F1EF39F0F3EF39F0F5EF39F058
:1073E600B8EF39F0D8903B323A3239323832413E32
:1073F600F5EF39F017EF3AF01F0E416405EF3AF05A
:1074060007EF3AF00FEF3AF0B8EF39F0D890383688
:1074160039363A363B3641064150D8A415EF3AF094
:1074260017EF3AF009EF3AF04050D8B41DEF3AF0B2
:107436001FEF3AF027EF3AF03B1E3A1E391E386C22
:10744600000E39223A223B2238C038F039C039F0D2
:107456003AC03AF03BC03BF01200720ED36E0F0EEC
:10746600C16E800E426E250E436E000E446E000EF7
:10747600456E3CEC39F0AFEC38F09280000E936E1E
:10748600010E8A6E74EC38F0496E310E4918D8B484
:107496004FEF3AF051EF3AF06CEF3AF0320E4918EE
:1074A600D8B458EF3AF05AEF3AF06CEF3AF0330EA0
:1074B6004918D8B461EF3AF063EF3AF06CEF3AF05E
:1074C600340E4918D8A46AEF3AF06CEF3AF06EEF32
:1074D6003AF049C048F0310E4818D8A475EF3AF092
:1074E60077EF3AF07AEF3AF08A8445EF3AF0320EC7
:1074F6004818D8A481EF3AF083EF3AF086EF3AF0D5
:107506008A9445EF3AF0330E4818D8A48DEF3AF036
:107516008FEF3AF09CEF3AF080A094EF3AF096EFB6
:107526003AF099EF3AF08A8445EF3AF08A9445EFBB
:107536003AF0340E4818D8A4A3EF3AF0A5EF3AF083
:10754600F5EF3AF0000E18EC39F003C046F004C02F
:1075560047F086EC38F046501F0BA4EC38F0000ECE
:1075660018EC39F004BEC1EF3AF0045009E1140EEC
:10757600035CD8A0C1EF3AF0C3EF3AF0D4EF3AF08B
:10758600000E18EC39F004BED2EF3AF0045009E1CF
:10759600240E035CD8A0D2EF3AF0D4EF3AF0EFEF26
:1075A6003AF0000E18EC39F004BEDCEF3AF0DEEFEC
:1075B6003AF0F2EF3AF0000E18EC39F004BEEFEFB5
:1075C6003AF0045007E1070E035CD8B0EDEF3AF04D
:1075D600EFEF3AF0F2EF3AF08A8445EF3AF08A9408
:1075E60045EF3AF045EF3AF000EF00F0096E09502A
:1075F600D8B400EF3BF002EF3BF024EF3BF004BEC3
:1076060009EF3BF007EF3BF024EF3BF001C005F03C
:1076160002C006F003C007F004C008F0051E061EEF
:10762600071E081E052A000E06220722082205C08C
:107636000BF006C00CF007C00DF008C00EF02CEFE2
:107646003BF001C00BF002C00CF003C00DF004C00B
:107656000EF00150021003100410D8A435EF3BF0D1
:1076660037EF3BF041EF3BF0000E016E000E026E6D
:10767600000E036E000E046ED2EF3BF0960E0A6EFD
:107686004BEF3BF00A2AD8900E320D320C320B32F9
:10769600000E0B14056E000E0C14066E000E0D1473
:1076A600076EFE0E0E14086E055006100710081021
:1076B600D8A460EF3BF062EF3BF045EF3BF070EF94
:1076C6003BF00A2A010E0B26000E0C220D220E227A
:1076D600D8900E320D320C320B32000E0B14056EA2
:1076E600000E0C14066E000E0D14076EFF0E0E141F
:1076F600086E0550061007100810D8A485EF3BF059
:1077060087EF3BF064EF3BF08FEF3BF00A06D89033
:107716000B360C360D360E360DBE94EF3BF096EF5B
:107726003BF09EEF3BF0020E0A609CEF3BF09EEFB3
:107736003BF089EF3BF00AB0A3EF3BF0A5EF3BF03F
:10774600A6EF3BF00D9ED8900A320AC005F0066AF5
:10775600076A086A05C008F0076A066A056A0550DE
:107766000B1206500C1207500D1208500E1209503B
:10777600D8B4C0EF3BF0C2EF3BF0CAEF3BF004BE1B
:10778600C9EF3BF0C7EF3BF0CAEF3BF00E8E0BC0E4
:1077960001F00CC002F00DC003F00EC004F01200A0
:1077A6001250800B1F6E12501224266E11AEDEEFA1
:1077B6003BF0E0EF3BF0E1EF3BF026802650D8B4FB
:1077C600E7EF3BF0E9EF3BF0FEEF3BF02628D8A4CD
:1077D600EFEF3BF0F1EF3BF0F9EF3BF0000E0F6EF1
:1077E600000E106E000E116E000E126E118E000E3F
:1077F600126E06EF3CF0000E0F6E000E106E000EBD
:10780600116E000E126E1650800B1F1A165016249B
:10781600276E15AE11EF3CF013EF3CF014EF3CF081
:1078260027802750D8B41AEF3CF01CEF3CF031EF1C
:107836003CF02728D8A422EF3CF024EF3CF02CEFB4
:107846003CF0000E136E000E146E000E156E000E48
:10785600166E158E000E166E39EF3CF0000E136E86
:10786600000E146E000E156E000E166E13501410D8
:1078760015101610D8A442EF3CF044EF3CF05CEF34
:107886003CF0000E0F6E000E106E000E116E000E14
:10789600126E800E11127F0E12121F5012120FC09E
:1078A6000FF010C010F011C011F012C012F09FEFCF
:1078B6003DF02650D8A462EF3CF064EF3CF06EEF4A
:1078C6003CF0000E0F6E000E106E000E116E000ED4
:1078D600126E9FEF3DF0275026C017F0186A175E0C
:1078E600000E185A7F0E1724206E000E1820216EE7
:1078F6000FC01BF010C01CF011C01DF012C01EF00E
:10790600000E0F6E000E106E000E116E000E126E3F
:10791600000E226E000E236E000E246E000E256EE3
:10792600000E276ECFEF3CF02750D8B49DEF3CF009
:107936009FEF3CF0B6EF3CF0D8901B361C361D3658
:107946001E36D8900F3610361136123625AEAEEFEB
:107956003CF0B0EF3CF0B1EF3CF00F80D89022360F
:1079660023362436253613501B5C14501C581550EC
:107976001D5816501E58D8A0C3EF3CF0C5EF3CF07A
:10798600CEEF3CF0258C13501B5E14501C5A15503C
:107996001D5A16501E5A272A190E2764D5EF3CF099
:1079A600D7EF3CF097EF3CF01B501C101D101E103B
:1079B600D8B4E0EF3CF0E2EF3CF0FAEF3CF0228086
:1079C600FAEF3CF0D8900F3610361136123625AE47
:1079D600EFEF3CF0F1EF3CF0F2EF3CF00F80D89087
:1079E60022362336243625362006D8A0210611AEA7
:1079F600FFEF3CF001EF3DF0E5EF3CF0000E276EA7
:107A060025AE08EF3DF00AEF3DF02EEF3DF0FF0EFC
:107A16002214176EFF0E2314186EFF0E2414196E0F
:107A26007F0E25141A6E1750181019101A10D8B494
:107A36001FEF3DF021EF3DF025EF3DF0010E276EE3
:107A46002EEF3DF00FA02AEF3DF02CEF3DF02EEF8C
:107A56003DF021EF3DF02750D8B434EF3DF036EF3E
:107A66003DF05AEF3DF0010E0F26000E10221122B6
:107A7600122212A041EF3DF043EF3DF05AEF3DF0E8
:107A86000FC017F010C018F011C019F012C01AF08C
:107A96001A341A3219321832173217C00FF018C0BA
:107AA60010F019C011F01AC012F0204A212A21BE86
:107AB60065EF3DF0215008E12028D8A065EF3DF0A4
:107AC60067EF3DF072EF3DF0000E216E2068000E6C
:107AD6000F6E000E106E000E116E000E126E21BE9D
:107AE6007FEF3DF0215006E12004D8B07DEF3DF058
:107AF6007FEF3DF08DEF3DF0000E216E000E206E03
:107B0600000E0F6E000E106E000E116E000E126E3D
:107B1600000E1F6E20C026F026A094EF3DF096EFD3
:107B26003DF099EF3DF0118E9AEF3DF0119ED89001
:107B36002630126E50EF3CF012002B50800B346E44
:107B46002B502B24366E2AAEABEF3DF0ADEF3DF059
:107B5600AEEF3DF036803650D8B4B4EF3DF0B6EF18
:107B66003DF0CBEF3DF03628D8A4BCEF3DF0BEEF9C
:107B76003DF0C6EF3DF0000E286E000E296E000E99
:107B86002A6E000E2B6E2A8E000E2B6ED3EF3DF062
:107B9600000E286E000E296E000E2A6E000E2B6E49
:107BA6002F50800B356E34503518D8B4DDEF3DF0CC
:107BB600DFEF3DF0E0EF3DF0348C2F502F24356E93
:107BC6002EAEE8EF3DF0EAEF3DF0EBEF3DF035800D
:107BD6003550D8B4F1EF3DF0F3EF3DF008EF3EF04D
:107BE6003528D8A4F9EF3DF0FBEF3DF003EF3EF06A
:107BF600000E2C6E000E2D6E000E2E6E000E2F6ED9
:107C06002E8E000E2F6E10EF3EF0000E2C6E000E24
:107C16002D6E000E2E6E000E2F6E3650355CD8B0CF
:107C260017EF3EF019EF3EF040EF3EF034AC1EEF9A
:107C36003EF020EF3EF022EF3EF0800E341A36C0C2
:107C460037F035C036F037C035F028C037F02CC0D5
:107C560028F037C02CF029C037F02DC029F037C0E6
:107C66002DF02AC037F02EC02AF037C02EF02BC0D8
:107C760037F02FC02BF037C02FF0000E376E36507E
:107C860035C030F0316A305E000E315A31BE55EFE4
:107C96003EF0315009E11A0E305CD8A055EF3EF0A7
:107CA60057EF3EF08EEF3EF0285029102A102B1089
:107CB600D8A460EF3EF063EF3EF0010E64EF3EF0B5
:107CC600000E376E000E286E000E296E000E2A6E0C
:107CD600000E2B6E35C036F097EF3EF037A076EFEC
:107CE6003EF078EF3EF07EEF3EF0D8903730010957
:107CF600376E80EF3EF0D890373228A085EF3EF001
:107D060087EF3EF088EF3EF0378E2B342B322A3247
:107D160029322832362A3550365CD8A095EF3EF007
:107D260097EF3EF071EF3EF034BC9CEF3EF09EEFD5
:107D36003EF0DEEF3EF03650D8A4A4EF3EF0A6EFBC
:107D46003EF0B0EF3EF0000E286E000E296E000EDB
:107D56002A6E000E2B6EFFEF3FF02C5028262D507A
:107D660029222E502A222F502B222BA0BDEF3EF087
:107D7600BFEF3EF06BEF3FF037A0C4EF3EF0C6EF2B
:107D86003EF0CCEF3EF0D89037300109376ECEEF9B
:107D96003EF0D890373228A0D3EF3EF0D5EF3EF034
:107DA600D6EF3EF0378E2B342B322A322932283248
:107DB600362A6BEF3FF02C50285C2D5029582E5058
:107DC6002A582B50800A306E2F50800A3058D8B06F
:107DD600EFEF3EF0F1EF3EF01CEF3FF028502C5C49
:107DE600306E29502D58316E2A502E58326E2B5037
:107DF6002F58336EFF0E3024286EFF0E3120296E69
:107E0600FF0E32202A6EFF0E33202B6E800E341AA0
:107E1600376C3750D8A412EF3FF014EF3FF024EF41
:107E26003FF0010E2826000E29222A222B2224EFBB
:107E36003FF02C50285E2D50295A2E502A5A2F508A
:107E46002B5A285029102A102B10D8A42DEF3FF0BA
:107E56002FEF3FF064EF3FF03750D8A435EF3FF0F7
:107E660037EF3FF064EF3FF0000E286E000E296EEC
:107E7600000E2A6E000E2B6EFFEF3FF0D8902836CC
:107E860029362A362B3637AE4BEF3FF04DEF3FF013
:107E96004EEF3FF0288037A053EF3FF055EF3FF00D
:107EA60059EF3FF0D88037365BEF3FF0D890373642
:107EB6003650D8B461EF3FF063EF3FF064EF3FF028
:107EC60036062AAE69EF3FF06BEF3FF041EF3FF029
:107ED600000E356E37AE72EF3FF074EF3FF08CEF69
:107EE6003FF037C030F07F0E3016D8B47DEF3FF04C
:107EF6007FEF3FF083EF3FF0010E356E8CEF3FF0E2
:107F060028A088EF3FF08AEF3FF08CEF3FF07FEF3D
:107F16003FF03550D8B492EF3FF094EF3FF0BFEF0B
:107F26003FF0010E2826000E29222A222B222BA002
:107F36009FEF3FF0A1EF3FF0BFEF3FF028C030F0DA
:107F460029C031F02AC032F02BC033F0333433323B
:107F560032323132303230C028F031C029F032C0EE
:107F66002AF033C02BF03628D8B4BCEF3FF0BEEF72
:107F76003FF0BFEF3FF0362A3628D8B4C5EF3FF0C2
:107F8600C7EF3FF0CFEF3FF03650D8A4CDEF3FF02C
:107F9600CFEF3FF0E1EF3FF0000E286E000E296EA6
:107FA600000E2A6E000E2B6E3650D8A4DDEF3FF081
:107FB600DFEF3FF0E1EF3FF0000E346E36A0E6EF64
:107FC6003FF0E8EF3FF0EBEF3FF02A8EECEF3FF0AB
:107FD6002A9ED89036302B6E34AEF4EF3FF0F6EF93
:107FE6003FF0F7EF3FF02B8E28C028F029C029F08C
:0A7FF6002AC02AF02BC02BF0120065
:020000040020DA
:08000000FFFFFFFFFFFFFFFF00
:020000040030CA
:0E00000000091F1EFF8181FF0FC00FE00F409F
:00000001FF
